:020000040000FA
:0400000012EF00F00B
:020004000000FA
:020008001100E5
:080018001100700ED36E400EC2
:100020009B6E12000F0EC16E0DEC00F00F0E946E61
:1000300092809282928492869288928A929E9380F3
:100040009382938493869398956A969096929694C9
:100050008C6A8B908B928B948B968B988B9A8D90CD
:100060008D928D94006A82500F0B040880A0E88066
:1000700080B2E88080B4E88080A6E8800008D8B428
:10008000008082500F0B040880A0E88080B2E880D6
:1000900080A4E88080B6E8800008D8B40080825050
:1000A0000F0B070881A0E8800008D8B400808250B8
:1000B0000F0B080881B2E8800008D8B40080825095
:1000C0000F0B090881A4E8800008D8B40080825092
:1000D0000F0B0C080008D8B4008000B08B8E00A075
:1000E0008B9E006A82500F0B030880A0E8800008F6
:1000F000D8B4008082500F0B040880A2E88000086A
:10010000D8B4008082500F0B040880A0E88080B231
:10011000E88080A4E88080B6E8800008D8B4008039
:1001200082500F0B040880A0E88080B2E88080B481
:10013000E88080B6E8800008D8B4008082500F0BB9
:10014000050880A8E8800008D8B4008082500F0B12
:1001500006080008D8B4008082500F0B070881B051
:10016000E8800008D8B4008082500F0B0C0800080B
:10017000D8B4008000B08B8C00A08B9C006A8250A9
:100180000F0B010880B0E8800008D8B400808250CE
:100190000F0B020880A2E8800008D8B400808250CB
:1001A0000F0B020880B0E88080B2E8800008D8B465
:1001B000008082500F0B030880B0E8800008D8B49C
:1001C000008082500F0B040880B0E88080B2E88085
:1001D0000008D8B4008082500F0B040880A0E8808B
:1001E00080B2E88080B4E88080A6E8800008D8B4B7
:1001F000008082500F0B050880A8E8800008D8B462
:10020000008082500F0B06080008D8B4008082508E
:100210000F0B070881B0E8800008D8B40080825036
:100220000F0B090881A4E8800008D8B4008000B052
:100230008B8A00A08B9A006A82500F0B0008D8B4FA
:10024000008082500F0B010880A0E8800008D8B41D
:10025000008082500F0B020880A0E88080B2E88006
:100260000008D8B4008082500F0B020880B0E880EC
:1002700080B2E8800008D8B4008082500F0B0308D9
:1002800080B0E8800008D8B4008082500F0B0408CA
:1002900080B0E88080B2E8800008D8B40080825046
:1002A0000F0B040880A0E88080B2E88080B4E8806A
:1002B00080A6E8800008D8B4008082500F0B0408A4
:1002C00080A0E88080B2E88080B4E88080B6E880D2
:1002D0000008D8B4008082500F0B050880B8E88071
:1002E0000008D8B4008082500F0B060880AAE8806E
:1002F0000008D8B4008082500F0B070881B0E88056
:100300000008D8B4008082500F0B08080008D8B449
:10031000008082500F0B090881B4E8800008D8B42F
:10032000008082500F0B0A080008D8B40080825069
:100330000F0B0B080008D8B4008000B08B8800A019
:100340008B98006A82500F0B0008D8B4008082504E
:100350000F0B0808D8B4008000A08A8800B08A98E3
:10036000006A82500F0B0008D8B4008082500F0B37
:100370000A08D8B4008000A0898E00B0899E006A67
:1003800082500F0B0008D8B4008082500F0B010878
:10039000D8B4008000B08C8000A08C90006A82509D
:1003A0000F0B0008D8B4008000B08C8200A08C92A3
:1003B000006A82500F0B0208D8B4008082500F0BE5
:1003C0000408D8B4008082500F0B0708D8B400800E
:1003D00000A08C8400B08C94006A82500F0B0B0834
:1003E000D8B4008000B08C8600A08C96006A825041
:1003F0000F0B0B0881B6E880D8B4008082500F0B39
:100400000908D8B4008000A08C8800B08C98006ADD
:1004100082500F0B0C08D8B4008000B08C8A00A06A
:100420008C9A006A82500F0B0508D8B4008000B087
:100430008C8C00A08C9C006A82500F0B0608D8B4EC
:10044000008000A08C8E00B08C9E006A82500F0B42
:100450000308D8B4008000B08D8000A08D90006AA1
:1004600082500F0B0908D8B4008000B08D8200A024
:0E0470008D9281A68D8481B68D9432EF00F0BE
:020000040030CA
:0100010009F5
:010003001EDE
:010005008179
:010006008178
:00000001FF
