:020000040000FA
:040000006DEF02F0AE
:020004000000FA
:040008007AEF00F09B
:020018001100D5
:10002000FC18FCBFFD36FD8FFDD4FE0CFE39FE5FD3
:10003000FE7FFE9BFEB3FEC8FEF9FEDAFEEAFF0677
:10004000FF12FF1DFF27FF30FF3895909584929295
:10005000929492969298929A936895829586F19E40
:10006000946812000000000000000A06D8A432EFD5
:1000700000F01200109089968998899A186A8C90DD
:1000800089928994800E016E010EEA6EE96A4AEC4B
:1000900000F01200000EEE6E810EE9624AEF00F0F1
:1000A000E96A1200F28A84EC00F058EC00F01200C9
:1000B000000EF86E000EF76E050E185C020DF35080
:1000C000200FF66E0900F550146E0800F550136EFF
:1000D000156A182A18C016F018C017F01200D09E22
:1000E000F28EF28CF29AF288F19CF18AF086810EFF
:1000F000D56E1200F2B2C1EF00F0F0B0CFEF00F019
:10010000F2B4AAEF00F01100FB0ED76E1E0ED66EF1
:10011000152A1A2AA6EC00F0120014C0D7FF13C04B
:10012000D6FFA6EC00F01200550ED76E1A0ED66E52
:10013000156A12008982898484EC00F0AAEF00F02D
:1001400094EC00F089928994BEEF00F0F2A4A6EF3F
:1001500000F01200F29AF294000E15649AEF00F08B
:1001600015501864A0EF00F01550166489921764BA
:1001700089948DEC00F0152AAAEF00F0F294F28A2F
:100180001100FF0E0A6E32EC00F0F1EC00F010A04E
:10019000182A898605EC02F08996F29211001070F7
:1001A0008978D9EC00F0FF0E0A6E32EC00F0F09086
:1001B0001100410E10B0E96EF29AEECF02F083A466
:1001C0009FEC01F083B4A8EC01F0400EE964DCEF91
:1001D00000F0810EE962DCEF00F0E96A83B4F28A94
:1001E0001200FBEC00F00EC0E9FF010EEF6EE96AB1
:1001F000D9EC00F0120082500F0B0D6E82CF0CF084
:100200000C460C460C460C460C500F0B0C6E0AECC0
:1002100001F012000DC00EF00E06080E0E020C507A
:10022000F3240E6E0E06410E10B00E261200010EC3
:100230000C6E010E0D6E1200010E0D26080E0D64DF
:10024000D9EF00F0010E0D6ED9EF00F00D2ED9EFB1
:1002500000F0080E0D6ED9EF00F0010E0C26080E0E
:100260000C64D9EF00F0010E0C6ED9EF00F00C2EEB
:10027000D9EF00F0080E0C6ED9EF00F00AEC01F097
:100280000EC0E9FFEFCF0FF0000E0F644EEF01F04C
:10029000010E0F6467EF01F0E96A1200020EEF6EC3
:1002A000090E0D6EE96AD9EC00F01A6A4E0E0B6E5B
:1002B00090EC01F01A6A8BEC01F01A6A8BEC01F0F9
:1002C00017EC01F010708978D9EC00F01200030EE1
:1002D000EF6E090E0D6EE96AD9EC00F010B017064A
:1002E00010A016061A6A0A0E0B6E90EC01F01A6A3C
:1002F0008BEC01F01A6A8BEC01F0010E166451EFE1
:1003000002F0176451EF02F017EC01F010708978D9
:10031000D9EC00F01200320E1A648BEF01F01200DB
:10032000898A0BC009F00AEC02F0899A0BC009F027
:100330000AEC02F0320E1A6490EF01F01200000E87
:100340000264C1EF01F0010E0264C7EF01F0120078
:100350000AEC01F00E50E828E962B1EF01F0BBEFC2
:1003600001F0030E0260C7EF01F0020E0260CDEF54
:1003700001F0C1EF01F0030E056E076E066ED3EFBC
:1003800001F0010E056E076A066AD3EF01F0030E55
:10039000066E076A056AD3EF01F0030E076E056A61
:1003A000066AD3EF01F08C800646000006AE8C9002
:1003B0000146000000008C9001A0D3EF01F08C807A
:1003C0000746000007AE8C900146000000008C90AC
:1003D00001A0DFEF01F08C800546000005AE8C9097
:1003E0000146000000008C9001A0EBEF01F012002C
:1003F0000868D00E096E0AEF02F0082EFDEF01F03A
:100400000868092EFDEF01F0120008680D0E096E54
:100410000AEF02F0082E0AEF02F00868092E0AEF30
:1004200002F01200F8EC01F083A212002DEC01F0B2
:1004300083B218EF02F0F8EC01F083B218EF02F08B
:100440001200F8EC01F081BA12001CEC01F081AA54
:1004500027EF02F0F8EC01F01200F8EC01F083A6AF
:1004600012003EEC01F083B633EF02F0F8EC01F03D
:100470001200F8EC01F081B8120037EC01F081A80D
:100480003FEF02F0F8EC01F01200F8EC01F081B659
:10049000120026EC01F081A64BEF02F0F8EC01F01F
:1004A00012001A6A040E0B6E90EC01F01A6A0A0E22
:1004B0000B6E90EC01F01A6A1E0E0B6E90EC01F0C0
:1004C0001A6A320E0B6E90EC01F01A6A500E0B6E27
:1004D00090EC01F01A6A6AEF02F025EC00F03AECB9
:1004E00000F06FEC00F0FF0E0A6E32EC00F0D9EC79
:1004F00000F0FF0E0A6E32EC00F0D9EC00F0FF0EB7
:100500000A6E32EC00F083A483EF02F017EC01F0E6
:1005100052EC00F01070D9EC00F0FF0E0A6E32ECD5
:1005200000F083B212EC02F081AA21EC02F083B653
:100530002DEC02F081A839EC02F081A645EC02F026
:0405400091EF02F045
:020000040030CA
:0100010006F8
:010003001EDE
:010005008179
:010006008178
:00000001FF
