:020000040000FA
:0400000009EF00F014
:10000800788293EC00F07892110059EF0CF0596E59
:100018000A0E591802E13F6A02D0010E3F6E406A8B
:10002800640E416E59C03EF0010E436E010C596ECC
:10003800F29E5950E3EC0EF005C0DEFF06C0DEFF6D
:1000480007C0DEFF08C0DEFFF28E1200560E596EA2
:1000580078EC0FF05C6E5C50FEE0956A7D0E8C6E5D
:10006800406A436A1200510EC1EC0EF05950666E98
:100078006650FEE0186A176A1B6A1A6A196A120043
:10008800520E596E78EC0FF05C6E5C50FEE0010E7B
:10009800306EF0EC09F02B6A1200540E596E78ECB1
:1000A8000FF05C6E5C50FEE0949A8B8A010E386EFD
:1000B800010C126A116A500EC1EC0EF05950106E04
:1000C8001050FEE0929889981200010E596E81BA7C
:1000D80081A004D081B281A601D0596A595012007A
:1000E80090EC0DF0010E0FEC0FF0C0EC0AF0030ECF
:1000F800686E56EF0FF020203100414344464749CF
:100108004A4C4D4F50535456575A948C948EB89627
:10011800200EAC6E900EAB6E400EAF6E400CCEEC67
:100128000FF0F294052A000E062207220822000C7E
:10013800596E5950BC0FD96EDA6ADF501200596EE9
:1001480059C055F0386A010E3B6E010CD09EF28EF4
:10015800F28CF28AF19E120090EC0DF00C0E0FEF6B
:100168000FF0596E59C0ADFF1200010EC26E010C9E
:10017800C2A2010C000C010E176E010C9EBA010CF4
:10018800000C336A3450120044501200306A1200D6
:10019800176A1200126A1200175012001950120042
:1001A800C282120013501200405012004350120035
:0F01B800AE5012003850120033501200120007E0
:100200000041542B43495053544152543D225544CC
:1002100050222C223235352E3235352E3235352EC0
:10022000323535222C000041542B43495053544160
:100230005455530D0A0041542B434950434C4F53DE
:10024000450D0A005343414E4E494E472E2E2E0077
:100250000041542B43495053454E443D00005553F3
:100260004552204E414D453A2000444553542E50AE
:100270004F52543A200041542B43574C41500D0AE1
:10028000005245432E504F52543A20004552524F8F
:10029000522E2E2E46006279652062796520004E2E
:0D02A0004F204D5347532E000D0A00000063
:1002AE000ED174EC00F0000E676AD0EC0BF02B2A26
:1002BE00000C6A0E706E2DD9C9EC0DF0020AD8A48E
:1002CE00000C040E0BEC00F0F2D7DAEC00F0000993
:1002DE00D8A4000C000E9CEC00F00001C66F010EBD
:1002EE009CEC00F00001C76F020E9CEC00F00001C8
:1002FE00C86F030E9CEC00F00001C96F74EC00F0A7
:10030E00000E676AD0EC0BF0D2D7810E706E01D959
:10031E00C9EC0DF0020AD8A4000C040E0BEC00F090
:10032E00C6D7DAEC00F00009D8A4000C000E9CEC45
:10033E0000F00001CB6F010E9CEC00F00001CC6FC1
:10034E00020E9CEC00F00001CD6F030E9CEC00F051
:10035E000001CE6F74EC00F0000E676AD0EC0BF06B
:10036E002B2A2804D8A4000C070E2B6E000C5E0E50
:10037E00706ECFD8C9EC0DF0020AD8A4000C030E93
:10038E000BEC00F094D7DAEC00F00009D8A4000CC6
:10039E00000E9CEC00F04D6E010E9CEC00F04E6ECB
:1003AE00020E9CEC00F04F6E74EC00F0000E676ACB
:1003BE00D0EC0BF07CD7360EAEEC04F07AEC0BF0F2
:1003CE00030AD8A4000C2F6A72D7E0EC00F0E806FE
:1003DE00D8A4000C2F2AC5EC00F017D00A0E2E1848
:1003EE0006E1070E2F6403D02F6A2B06000C0A0EAF
:1003FE002E18FBE1080E2F60F8D759D7C2EC00F08B
:10040E00E806D8A4000CDCEC00F02E6E50D7010EDE
:10041E00AEEC04F07AEC0BF0030A01E148D7000CC5
:10042E00C60E096E0A6A09C05AF00AC05BF07AEC71
:10043E000BF0F2D7A80EAEEC04F07AEC0BF0030A38
:10044E00D8A4000C1E6A52501BEC00F0BCD7C2ECB4
:10045E0000F0E80616E1DCEC00F0060A06E1BFEC5F
:10046E0000F02B6A010E216E010CE2EC00F00B0E77
:10047E002B6E2C2A020E2C6403D02B6A216A010CDF
:10048E002F2A5250C1EC0EF05C505B1005E1E80EC5
:10049E00BAEC04F0D8A0000C630E1E640BD0E2EC94
:1004AE0000F00B0E2B6E2C2A2704E7E0020E2C64B4
:1004BE00000CE3D71E2A52501BEC00F0000C2B5000
:1004CE0001E1EFD6010A01E1F4D6030A01E1FDD6FE
:1004DE00010A01E11AD7070A01E123D7010A01E156
:1004EE0046D7030A01E14FD7010A01E164D70F0A8B
:1004FE0001E16BD7010A01E171D7030A01E17ED751
:10050E00010A85E0070A8CE0010A94E0030A9FE0E5
:10051E0012007050D8A4020E716E1200EBD074EC63
:10052E0000F0000E676AD0EC0BF07728266E080EEE
:10053E00261801E1266A2F6A010E296407D02628A3
:10054E00256E070E261804E1256A02D02A0E256EA6
:10055E002D6A295002E1070EC2D02B2A000E676ABF
:10056E00D0EC0BF0000C2F5004E12D50310F97EC16
:10057E000EF02F0403E13A0E97EC0EF0010E2F64ED
:10058E001DD02650CBD897EC0EF00F0E2F1809E188
:10059E00E5D8D0EC0BF02A0E2518D8A4000C2B2A87
:1005AE00000C2650D5D8C9D809E1D8D8D0EC0BF01C
:1005BE002A0E2518D8A4000C030E91D02F2A000C59
:1005CE002F5008E12D50320F97EC0EF02D50320FB8
:1005DE00B5EC00F02F0406E13A0E97EC0EF03A0E51
:1005EE00B5EC00F0010E2F64E9D7255097D897ECA3
:1005FE000EF0255093D8B5EC00F02550A9D89DD813
:10060E0001E12B2A0D0E2F18D9E12B2AD7D769EC31
:10061E0000F0000904E033EC0FF0236EC0D769EC54
:10062E0000F00009D8A4000C2950D8B4000CD4EC6A
:10063E0000F0050E54D02A0E231801E1010C2B06F2
:10064E001200BCEC00F0E80608E193EC0FF0E806AF
:10065E0004E1D6EC00F0246EA2D7BCEC00F0E80664
:10066E00D8A4000C93EC0FF00009A6E0000C020ECB
:10067E0024180CE12D50A0E02D0626C025F02650A2
:10068E0003E1070E266E23D0260621D024041FE197
:10069E00020E29641CD0FE0E2924726E736AFF0EA0
:1006AE0073222D50746E756A7250745C7550800A88
:1006BE00766E7350800A765801E37ED72D2A25C0B8
:1006CE0026F0070E251802E1256A01D0252A2F6A89
:1006DE0074EC00F0000E676AD0EC0BF0010E2B6E7E
:1006EE00000C9F0E93EC0EF090EC02F0C9EC0DF0A6
:1006FE00020ABBD72B5001E112D7010A01E133D711
:10070E00030A01E15DD7010A82E0070A94E0010ABB
:10071E0098E0030AACE0010AE4E012000E0D7C0E34
:10072E00F324726E010EF420736E2F507224D96E64
:10073E00000E7320DA6EDF501200F420736E2F500D
:10074E007224D96E000E7320DA6E2A0EDE18120095
:10075E000E0D7D0EF324726E010E12002B2A2F6ADF
:10076E00010E676E000CCED074EC00F0000E676ABE
:10077E00D0EC0BF00A0E0BEC00F02A2A000CDAEC8F
:10078E0000F00009D8A4000C33EC0FF02A0A02E1A5
:10079E002A6A010C010E2B6EF0D767EC0EF0E806FC
:1007AE00D8A4000C200403E1060E2A6E000C2A2A9F
:1007BE00070E2B6E010E276E000C57EC01F0E806AB
:1007CE00D8A4000C2104F0E0D8D78C0E706E90ECFB
:1007DE0002F0C9EC0DF0020AD8A4000C52501BEC2A
:1007EE0000F0CBD75250C1EC0EF05C505B1004E120
:1007FE00E90EB9D8D8A0000C74EC00F0000E676AB0
:10080E00D0EC0BF0C5D7510EA2D87AEC0BF0030A40
:10081E00D8A4000CD8EC00F0060F2F6E090E2F6432
:10082E00ACD7310EA3EC00F0F60E2F26A6D7DEECD9
:10083E0000F0E806D8A4000C2F50300FA3EC00F007
:10084E009CD7DEEC00F0E80698E0000CA80E7FD8EE
:10085E007AEC0BF0030AF8D7E0EC00F0E806D8A427
:10086E00000CC5EC00F03E0AD8A4000C2F6A85D708
:10087E00DEEC00F0E806D8A4000C030E2F6006D0C4
:10088E006CD8A3EC00F069D8B5EC00F0030E2F186D
:10089E0006E13B0EA3EC00F03B0EB5EC00F0030EB0
:1008AE002F641DD02F50FC0F9CEC00F0A3EC00F039
:1008BE002F50FC0F9CEC00F0B5EC00F0D8EC00F0E3
:1008CE00726E736AFD0E2F24746E756AFF0E75229A
:1008DE007250741804E17350751801E12A2A2F2AF8
:1008EE00000CA80E34D87AEC0BF0B4D7C2EC00F0A2
:1008FE00E806D8A4000C2A6ADCEC00F0060AD8B48C
:10090E00000C010C2A5001E12FD7010A01E137D763
:10091E00030A01E142D7010A01E14FD7070A01E1BB
:10092E0054D7010A01E15ED7030A01E16CD7010A2F
:10093E0001E17DD70F0A85E0010A88E0030A8CE009
:10094E00010A96E0070ACDE0010AD0E012005A6EC5
:10095E005A50D8A4020E5B6E12002F504D0FD96E56
:10096E00DA6ADF501200595C030E5A581200C8D0D2
:10097E00D0EC00F0E80605E1CCEC00F0010E1F6EA5
:10098E0001D01F6A1D2A1200E0EC00F0E806D8A480
:10099E001200C5EC00F02E6E3A0E2E18D8A41200DE
:1009AE001D2A2F6A1200E0EC00F0E806D8A412000F
:1009BE00C5EC00F02E6E0D0E2E180AE10D0E2F183E
:1009CE0003E0BBD82A0EDF6E2D0EB5EC00F0DAD7A1
:1009DE00B4D82EC0DFFF2F2A120074EC00F0010EE7
:1009EE00676E000ED0EC0BF02F6ACCD70E0E2F6078
:1009FE000DD0A3D82A0EDE1806E09FD8DF5097EC54
:100A0E000EF02F2A09D0140E2F6E06D0040EDAEC3B
:100A1E000CF01E6A050E1D6E52501BEF00F0525068
:100A2E00C1EC0EF05C505B1003E196D8D8A012001A
:100A3E00050EDAEC0CF01E6A52501BEC00F0A2D739
:100A4E005250C1EC0EF05C505B1003E185D8D8A07B
:100A5E001200060EDAEC0CF01E6A52501BEC00F07F
:100A6E0091D75250C1EC0EF05C505B1003E174D87C
:100A7E00D8A01200070EDAEC0CF01E6A52501BECD6
:100A8E0000F080D75250C1EC0EF05C505B1003E1C9
:100A9E0063D8D8A01200080EDAEC0CF01E6A525081
:100AAE001BEC00F06FD75250C1EC0EF05C505B1097
:100ABE0003E152D8D8A01200CEEC00F01E6A5250BC
:100ACE001BEC00F05FD752501BEC00F0775002E0A9
:100ADE00770602D0070E776E080E296001D0292AFC
:100AEE00010E306E1D6A74EC00F0000E676AD0ECD9
:100AFE000BF02B6A2A6A1F04D8A41200BFEF00F075
:100B0E001D5001E135D7010A01E13ED7030A01E18B
:100B1E004AD7010A01E161D7070A01E167D7010A45
:100B2E0001E17DD7030A8CE0010A9BE00F0AAAE0DF
:100B3E00010AB9E0030AC7E0120077500E0D7E0ECF
:100B4E00F324706E010EF420716E2F507024D96E46
:100B5E00000E7120DA6E1200110E595C270E5A58D3
:100B6E001200170401E1B1D012001B6A1A6A156A4D
:100B7E00182A120074EC00F051501BEC00F01BC050
:100B8E001AF0F5D7676A1550D0EC0BF0150E1A60F7
:100B9E0007D0C3D8706E010EB1D897EC0EF0E8D71F
:100BAE00BCD8D96E010EBED897EC0EF0E1D7010E6F
:100BBE00676E1550D0EC0BF0150E1A600BD0050EAB
:100BCE00191806E0A5D8706E010E98D897EC0EF0A5
:100BDE001A2A0BD0050E191806E09AD8D96E010EF6
:100BEE00A1D897EC0EF0010E1A6E152A100E1518DC
:100BFE00BEE01806120069EC00F0000904E033ECC8
:100C0E000FF0166EB5D769EC00F00009D8A41200EB
:100C1E00D4EC00F0060E186E060C230E161803E127
:100C2E00090E186E090C230E1618D8B41200D4EC47
:100C3E0000F09ED7BCEC00F0E80608E193EC0FF054
:100C4E00E80604E1D6EC00F0146E92D7BCEC00F08E
:100C5E00E806D8A4120093EC0FF00009D8A41200F5
:100C6E00080E186E080C020E141804E1195008E054
:100C7E00190606D0140404E1050E191801E0192A0C
:100C8E001B6A010E186E010C5150C1EC0EF05C5037
:100C9E005B1005E1100E595C270E5A5805E31B2A0E
:100CAE00150E1B64EED7ECD7040E186E040C69EC0F
:100CBE0000F00009D8A4120074EC00F0000E676A70
:100CCE00D0EC0BF0186A176A1200185001E14DD7DC
:100CDE00010A01E14FD7030A01E154D7010A01E1EC
:100CEE0066D7070A88E0010A98E0030AA3E0010A22
:100CFE00BAE00F0AC9E0010ADAE01200F420716EC0
:100D0E001A507024D96E000E7120DA6EDF50120068
:100D1E001950150D150EF32412001950150D000E55
:100D2E00F3241200F420DA6EDF5012005E6E959CF2
:100D3E00959CB9D8BFEC0DF0BFEC0DF08C848C8473
:100D4E005EA603D0596A592A01D0596A593AC8D8B1
:100D5E00BF0B59182CEC08F05A6E5A3ABCD8BF0B80
:100D6E005A182CEC08F05B6E5B3ABFD8BF0B5B18C1
:100D7E002CEC08F05C6E5C3AA9D8BF0B5C182CEC1E
:100D8E0008F05D6E5D3A9DD8BF0B5D188C6E5EA44B
:100D9E0003D0596A592A01D0596A593A59468C508A
:100DAE005918DF0B591832EC08F05A6E5A3A5A4657
:100DBE008C505A18DF0B5A1832EC08F05B6E5B3A07
:100DCE005B468C505B18DF0B5B1832EC08F05C6EE8
:100DDE005C3A5C468C505C18DF0B5C1832EC08F009
:100DEE005D6E5D3A5D468C505D18DF0B5D188C6E46
:100DFE005EA203D0596A592A01D0596A593A8C50C9
:100E0E005918EF0B59188C6E8C38010B5A6E5A3AD2
:100E1E008C505A18EF0B5A188C6E8C38010B5B6E77
:100E2E005B3A8C505B18EF0B5B188C6E8C38010B99
:100E3E005C6E5C3A8C505C18EF0B5C188C6E8C38C8
:100E4E00010B5D6E5D3A8C505D18EF0B5D188C6E6C
:100E5E005EA003D0596A592A01D0596A594640D822
:100E6E00F70B591826EC08F05A6E5A4634D8F70B81
:100E7E005A1826EC08F05B6E5B4637D8F70B5B18FA
:100E8E0026EC08F05C6E5C4621D8F70B5C1826EC5D
:100E9E0008F05D6E5D4615D8F70B5D188C6EC4ECD0
:100EAE000DF08C941200959A959895968C928C9242
:100EBE008C928C928C928C908C908C908C908C903E
:100ECE0012005D465D468C505D1812005C465C4615
:100EDE008C505C1812005A465A468C505A18120002
:100EEE00594659468C50591812005B465B468C5039
:100EFE005B1812005E6E5EA603D0596A592A01D0A5
:100F0E00596A593AB7D8BF0B59189FD85A6E5A3AE0
:100F1E00A7D8BF0B5A1899D85B6E5B3AB0D8BF0BE7
:100F2E005B1893D85C6E5C3AAFD8BF0B5C188DD84B
:100F3E005D6E5D3A9AD8BF0B5D188C6E5EA403D0C1
:100F4E00596A592A01D0596A593A59468C5059183A
:100F5E00DF0B591880D85A6E5A3A5A468C505A1886
:100F6E00DF0B5A1878D85B6E5B3A5B468C505B1879
:100F7E00DF0B5B1870D85C6E5C3A5C468C505C186C
:100F8E00DF0B5C1868D85D6E5D3A5D468C505D185F
:100F9E00DF0B5D188C6E5EA203D0596A592A01D000
:100FAE00596A593A8C505918EF0B59188C6E8C3867
:100FBE00010B5A6E5A3A8C505A18EF0B5A188C6E07
:100FCE008C38010B5B6E5B3A8C505B18EF0B5B1829
:100FDE008C6E8C38010B5C6E5C3A8C505C18EF0B8F
:100FEE005C188C6E8C38010B5D6E5D3A8C505D1802
:100FFE00EF0B5D188C6E5EA003D0596A592A01D092
:10100E00596A594637D8F70B591819D85A6E5A4695
:10101E0027D8F70B5A1813D85B6E5B4630D8F70BF0
:10102E005B180DD85C6E5C462FD8F70B5C1807D892
:10103E005D6E5D461AD8F70B5D188C6E12008C6EC5
:10104E008C30E832E832010B12008C6E8C38E832AC
:10105E00E832010B12008C6E8C38E832010B120054
:10106E005A465A468C505A1812005D465D468C50B0
:10107E005D181200594659468C50591812005B469D
:10108E005B468C505B1812005C465C468C505C18BC
:10109E0012005E6E5EAE03D0596A592A01D0596AAB
:1010AE00593AADD8BF0B59182CEC08F05A6E5A3A73
:1010BE00ABD8BF0B5A182CEC08F05B6E5B3AAED86F
:1010CE00BF0B5B182CEC08F05C6E5C3AA2D8BF0B21
:1010DE005C182CEC08F05D6E5D3A8CD8BF0B5D1879
:1010EE008C6E5EAC03D0596A592A01D0596A593AAE
:1010FE0059468C505918DF0B591832EC08F05A6EBD
:10110E005A3A5A468C505A18DF0B5A1832EC08F0DD
:10111E005B6E5B3A5B468C505B18DF0B5B1832ECF8
:10112E0008F05C6E5C3A5C468C505C18DF0B5C1809
:10113E0032EC08F05D6E5D3A5D468C505D18DF0B4B
:10114E005D188C6E5EAA03D0596A592A01D0596A6D
:10115E00593A8C505918EF0B59188C6E8C38010B6C
:10116E005A6E5A3A8C505A18EF0B5A188C6E8C389D
:10117E00010B5B6E5B3A8C505B18EF0B5B188C6E41
:10118E008C38010B5C6E5C3A8C505C18EF0B5C1863
:10119E008C6E8C38010B5D6E5D3A8C505D18EF0BCA
:1011AE005D188C6E5EA803D0596A592A01D0596A0F
:1011BE00594625D8F70B591826EC08F05A6E5A46A0
:1011CE0023D8F70B5A1826EC08F05B6E5B4626D830
:1011DE00F70B5B1826EC08F05C6E5C461AD8F70B22
:1011EE005C1826EC08F05D6E5D4604D8F70B5D18B2
:1011FE008C6E12005D465D468C505D18120059468D
:10120E0059468C50591812005A465A468C505A1844
:10121E0012005C465C468C505C1812005B465B46C6
:10122E008C505B18120065D069EC00F0000908E1E3
:10123E00455006E18A848A888A9C010E456E010C0F
:10124E0069EC00F0000908E1450406E18A948A88F9
:10125E008A8C020E456E020C69EC00F0000908E162
:10126E00020E451805E18A848A988A8C456A120016
:10127E0069EC00F00009D8B41200898657501BECB7
:10128E0000F0462A12005750C1EC0EF05C505B1075
:10129E00F8E1F40E595C010E5A58F3E2120069ECB3
:1012AE0000F0000902E1466A120069EC00F0000944
:1012BE00D8B41200010E446E33EC0FF0DAEC0CF0E1
:1012CE00E0D769EC00F00009D8A4120057501BECCF
:1012DE0000F0CEEC00F0446AD4D75750C1EC0EF0BB
:1012EE00D5D769EC00F00009D8A412008996466A99
:1012FE001200465099E0010AC6E0030AD0E0010A46
:10130E00E0E0070AEAE0010AECE0120030045AE0DD
:10131E00BEEF04F03004D8A41200296A070E776ECF
:10132E0058D81C2A120057EC01F0E806D8A4120077
:10133E00210404E1BFEC00F02B6AF3D71C06120067
:10134E00D0EC00F00009D8A41200D2EC00F0000995
:10135E0008E1E9EC0EF0E806D8A412002B6ABFEF04
:10136E0000F0D2EC00F0E80605E167EC0EF0E806BE
:10137E00F5E01200D2EC00F0020A09E1010E286E2F
:10138E0057EC01F0E806D8A41200286AE7D7D2EC91
:10139E0000F0030A03E1BAEC03F0E9D7D2EC00F057
:1013AE00040A03E195EC02F0E2D7D2EC00F0050A54
:1013BE00D8A4120018EC0DF0E806D8A412002B6A7F
:1013CE001C6A12001C50A6E0010AADE0030AB8E048
:1013DE001200286A276A2C6A2C0E0001CA6FCF6B86
:1013EE00120060D081BE5BD05350C1EC0EF05C5049
:1013FE005B105A1004E10A0E595CD8A01200020EBE
:10140E00316E8998020C080E356005D08134343265
:10141E00352A312A1200356A030E316E030C35500F
:10142E00140DF3CF66F0F4CF67F01E0E6624686ECF
:10143E00000E6720696E6A6A69BE6A066A506B6E34
:10144E005350C1EC0EF06850595C69505A586A50AE
:10145E005B586B505C58D8B0310612005350C1EC3B
:10146E000EF05C505B105A1004E1BE0E595CD8A011
:10147E0012003250010FD96EDA6A3450DE1808E1CC
:10148E00322A040E321805E1326ACAEC00F001D09D
:10149E00326A3450B5EC00F0010E336E316A53509F
:1014AE001BEF00F031509EE0010AADE0030AB7E0F9
:1014BE00010AD4E012006F6E580E596E78EC0FF0E0
:1014CE00586E6FC04CF06EC04BF0496A4A6A9594E4
:1014DE0095929590706A716A4CD8640E686E56EC4F
:1014EE000FF0030E9DEC06F044D8050E686E56EC18
:1014FE000FF0030E9DEC06F03CD8010E686E56EC14
:10150E000FF0030E9DEC06F034D8010E686E56EC0B
:10151E000FF0020E9DEC06F02CD8010E686E56EC04
:10152E000FF0280E0FEC0FF090EC0DF0080E0FECF4
:10153E000FF090EC0DF0010E0FEC0FF01AD8030E19
:10154E00686E56EC0FF090EC0DF0060E0FEC0FF0EF
:10155E0090EC0DF00F0E0FEC0FF0704A712A71BE69
:10156E00BBD7715005E1020E705CD8B01200B4D733
:10157E00120058C066F0676A696A1200756E4118EB
:10158E0009E15650C1EC0EF05C505B1003E1B3EC78
:10159E0005F00EE34BD84050BC0FE16EE26ADFCF90
:1015AE00E7FF75C041F0402A426A56501BEC00F02E
:1015BE0075C041F056501BEC00F038D8DF503D6E30
:1015CE0042503DC070F0716A7026000E7122755047
:1015DE00020DF350D10FD96EDA6ADF50726E736A54
:1015EE007050725C7350800A746E7150800A745819
:1015FE0008E2426A7550300F3D6E755008E1300EAC
:10160E0005D0422A42503D24706E70043D6E3FC09C
:10161E0067F04004D0EC0BF03D5097EC0EF04050CC
:10162E00BB0FD96EDA6A3DC0DFFF12007550020D96
:10163E00F350D00FD96EDA6A12004CD03B04D8A406
:10164E00120054501BEC00F08B9A372A12003A50BD
:10165E00140DF3CF66F0F4CF67F0140E6624686EA7
:10166E00000E6720696E6A6A69BE6A066A506B6E02
:10167E005450C1EC0EF06850595C69505A586A507B
:10168E005B586B505C58E1E21200080E3A600DD0C8
:10169E005550010B396ED89055323A2A37063950CB
:1016AE0002E18B9A12008B8A12008B8A3A6ACDD78E
:1016BE005450C1EC0EF05C505B105A1004E1DC0E7D
:1016CE00595CD8A012003B6A376A010E386E54502E
:1016DE001BEF00F03750B2E0010AB9E0030AD5E083
:1016EE00010AE6E012003ED05AC00BF05BC00CF0CF
:1016FE00362A46D0DEEC00F0E80642E143D8F76425
:10170E0003D00800F55002D0F4EC0DF0A3EC00F07D
:10171E000B4A0C2AEDD736D8F76403D00800F550E3
:10172E0002D0F4EC0DF0000902E0360629D0060EC8
:10173E0017D0366A25D0DEEC00F0E80621E10D0E5A
:10174E00A3EC00F0D5D7DEEC00F0E80619E10A0EA6
:10175E00A3EC00F0CDD7DEEC00F0E80611E1030EAD
:10176E00366E0ED03650C0E0010AC4E0030AD3E054
:10177E00010ADFE0070ADFE0010AE5E0030AEBE019
:10178E00365012000BC0F6FF0CC0F7FFF86A010EC0
:10179E0012006E6E30D0675004E06B6A400E6A6EB7
:1017AE0002D06A6A6B6A6E506A246C6E000E6B20F1
:1017BE006D6E29D06EC06CF06D6A670402E1400E4A
:1017CE0004D0020E671804E14B506C26000E0DD0AB
:1017DE00030E671818E14B50686E696A400E682652
:1017EE00000E692268506C2669506D220CD06EC0B6
:1017FE006CF06D6A08D04C50010AF9E0030ACBE098
:10180E00060AD8E0F4D790EC0DF06C5080090FEC7E
:10181E000FF067C04AF06EC049F0120039D0430491
:10182E00D8A412003C2A1200C8EC00F0E80612E11F
:10183E0033EC0FF0230A33E033EC0FF02A0A01E108
:10184E002ED033EC0FF0C5EC0AF040503E5CEAE2CD
:10185E00400625D0C8EC00F00009D8A4120056505E
:10186E00C1EC0EF05C505B1004E1B3EC05F0D8A0B7
:10187E0012003E504018D8A412004150C5EC0AF098
:10188E0043063C061200C8EC00F00009FAE0120014
:10189E003C50C5E0010AC8E0030AF5E01200430619
:1018AE003C061200360EF66E190EF76E000EF86E2E
:1018BE0001EE00F010EE7EF00900F5CFEEFFE550E0
:1018CE00E150FAE1FE0EF66E000EF76E000EF86EA7
:1018DE0000EED0F010EE14F00900F5CFEEFFE5505B
:1018EE00E150FAE1C60EF66E010EF76E000EF86EBE
:1018FE000900F5CF77F001EE7EF0700EEE6AE80685
:10190E00FDE100EE80F0500EEE6AE806FDE100EE1D
:10191E0001F0580EEE6AE806FDE178907892000E1E
:10192E00F86E000101EF0EF0313A4C49535420414C
:10193E00434345535320504F494E545320323A534C
:10194E00484F5720434F4E4E2E205354415455531B
:10195E002020333A4348414E4745204348415420C6
:10196E004D4F4445202020343A454E544552204395
:10197E00484154204D4F444520202020353A4C49B3
:10198E005354204C415354204D5347532E20202066
:10199E0020363A434C4F534520434F4E4E45435409
:1019AE00494F4E202020596E2A0E591802E12C0E56
:1019BE00116E230E591802E1B60E116E595002E146
:1019CE00140E116E590402E1840E116E020E591896
:1019DE0002E14C0E116E030E591802E1280E116E23
:1019EE00040E591802E1E80E116E050E591802E1A7
:1019FE00200E116E060E591802E1EE0E116E070E34
:101A0E00591802E1540E116E080E591802E1900E8B
:101A1E00116E090E591802E11C0E116E010E126E96
:101A2E00010C32D074EC00F0000E676AD0EC0BF0B3
:101A3E002B2A000C960E706E90EC02F0C9EC0DF095
:101A4E00020AF6E0000C4D0E706E716AC9EC0DF0D4
:101A5E00F7D7210E97EC0EF02B2A52501BEC00F00C
:101A6E00000C5250C1EC0EF05C505B1006E1210EE2
:101A7E00595C4E0E5A58D8A0000C74EC00F0000EB3
:101A8E00676AD0EC0BF0010C2B50CCE0010AD2E0CF
:101A9E00030AD9E0010ADDE0070AE3E012001BD0D9
:101AAE0031D8C1EC0EF01CD8D8A0120050501BEC4F
:101ABE0000F089880F2A120025D8C1EC0EF010D83C
:101ACE00D8A012001204D8A4120050501BEC00F043
:101ADE0089980F0612000F50E3E0010AEDE01200A4
:101AEE00D89059346A6E5A346B6E5B346C6E5C34BB
:101AFE006D6E66506A5C67506B5868506C586950D2
:101B0E006D58120011C066F0676A686A696A5050B3
:101B1E00120061EC0EF08C928C928C928C928C92C4
:101B2E008C808C808C808C808C8058501BEC00F0CC
:101B3E001FD81ED88C848C84000E83BC010E666E5A
:101B4E001CD81BD88C948C9413D812D88C848C846B
:101B5E0014D813D88C948C945850C1EC0EF0595064
:101B6E005A105B105C1001E012006650E1E11200A9
:101B7E008C848C848C848C8412008C948C948C94A5
:101B8E008C94120022D070C00DF071C00EF0476A16
:101B9E00482A21D028D8F76403D00800F55001D088
:101BAE001CD80009F5E0100E4760F2D71CD8F76478
:101BBE0003D00800F55001D010D897EC0EF00D4A66
:101BCE000E2A472A08D0486A06D04850DCE0010A9F
:101BDE00E1E0030AF8E048501200F6CFE1FFF7CF3C
:101BEE00E2FFE75012000DC0F6FF0EC0F7FFF86AD5
:101BFE00010E1200AAEC00F0BFEC0FF0AAEC0FF0F1
:101C0E002AEC00F051EC00F0E6EC0FF089EC00F05D
:101C1E00100E6E6E020E62EC0AF074EC00F0B0EC78
:101C2E0000F0000E676AD0EC0BF044EC00F05DECB7
:101C3E0000F0F8EC0FF037EC00F0B9EC00F01AEC15
:101C4E0009F015EC0CF08DEC09F024EC0BF0F8EC2F
:101C5E0009F0B8EC05F056EC0DF0F1D75F6E959CDF
:101C6E00959C959A959895968C828C828C828C8276
:101C7E008C828C908C908C908C908C90BFEC0DF014
:101C8E008C845F5050EC08F0BFEC0DF08C84C4ECEB
:101C9E000DF0C4EC0DF08C948C94BFEC0DF08C8494
:101CAE005F5081EC07F0BFEC0DF08C84C4EC0DF0AE
:101CBE008C9400D0958C958C958A9588958612007B
:101CCE0024D0440E29D890EC02F0C9EC0DF0020A93
:101CDE00D8A4000C2B2A000C270EAEEC04F07AECE4
:101CEE000BF0030AF7E0000CC2EC00F0E806D8A4F3
:101CFE00000CDCEC00F02E6E060E2E1803E1010E29
:101D0E00206E01D0206A2B6A010C2B50DAE0010AFA
:101D1E00E3E0030AE9E01200226E22C070F0120026
:101D2E006F6E90EC0DF06F5035EC0EF0492A030EED
:101D3E004C1807E1130E4964130C496A4A2A030E24
:101D4E0009D0020E4C180AE1270E4964270C496A85
:101D5E004A2A010E4A6409D04A6A07D04A04D8A416
:101D6E001200270E496401D0496A4AC067F04950F3
:101D7E00D0EF0BF0656EF29E05C061F006C062F00A
:101D8E0007C063F008C064F0F28E655015D8DECF40
:101D9E005DF0DECF5EF0DECF5FF0DECF60F05D5047
:101DAE00615C596E5E5062585A6E5F5063585B6E3E
:101DBE00605064585C6E1200050DF350800FD96EA2
:101DCE00DA6A12001ED0440E93EC0EF090EC02F084
:101DDE00C9EC0DF0020AD8A4000C2B2A000C760ECA
:101DEE00AEEC04F07AEC0BF0030AF7E0000CC2EC58
:101DFE0000F0E806D8A4000CDCEC00F02E6E2B6A86
:101E0E00010C2B50E0E0010AEAE0030AF0E01200B8
:101E1E005F6E959C959C5AEC07F08C84BFEC0DF090
:101E2E005F5050EC08F0BFEC0DF08C848C948C94C9
:101E3E008C948C948C948C94C4EC0DF0BFEC0DF0BF
:101E4E008C845F5081EC07F0BFEC0DF08C84C4ECF9
:101E5E000DF08C9461EF0EF01AD081AA010C81A0C6
:101E6E00040C81A2070C81B6000C2A0C81AA020C6C
:101E7E0081A0050C81A2080C8150000C81AA030CD4
:101E8E0081A0060C81A2090C81B6000C230C4550D2
:101E9E00E4E0010AEBE0030AD8A4000CEFD7665089
:101EAE001BEC00F068C059F069C05AF05C6A0A0E6B
:101EBE005B6ED3EC0FF059C06AF05AC06BF0000E97
:101ECE006BBEFF0E6C6E6D6E6650C1EC0EF06A50FE
:101EDE00595C6B505A586C505B586D505C58E2E32D
:101EEE0012005B6A05D05B2A0C0E5B1801E1000C38
:101EFE005B500CD8DE04F7E05B5008D8010EDF6EA5
:101F0E005950D96EDA6A5BC0DFFF010C050DF35034
:101F1E00840FD96EDA6A1200050EC46005D0135014
:101F2E0003E1020E136E010CF50EC46404D01350BF
:101F3E0002E1010EF7D7050EC464000CF50EC46065
:101F4E00000C136A000C570E596E78EC0FF05C6E95
:101F5E005C50FEE093949398939C93809382938627
:101F6E00938A9296456A466A8A948A888A9C120057
:101F7E00596A59508DEC0FF0DF6A592A0B0E5964CD
:101F8E00F8D7880ED56E03D8F294F28A180CFC0E90
:101F9E00D76E180ED66E180C59505B02F3CF5DF04B
:101FAE00F4CF5EF059505C02F3505E265A505B023D
:101FBE00F3505E265DC059F05EC05AF01200530E0B
:101FCE00596E78EC0FF05C6E5C50FEE02B0E016EDD
:101FDE00490E026E500E036E440E046E938E336ADB
:101FEE0012000D0EC16E240EC06E010EC26E136A6B
:021FFE001200CF
:020000040020DA
:08000000FFFFFFFFFFFFFFFF00
:020000040030CA
:0E000000FF06191EFF8181FF03C003E00340CD
:00000001FF
